:10000000E1C000000EC100000CC100000AC10000E8
:10001000C6C3000006C1000004C1000002C1000008
:1000200000C100000C94C816FCC00000FAC000001B
:10003000F8C00000F6C00000F4C00000F2C00000EC
:10004000F0C00000EEC00000ECC00000EAC00000FC
:10005000E8C000005A0486046104F204F604FD04BA
:1000600002053B061809F308F80895099509950952
:10007000950995099509FF081309950995099509A9
:10008000950995099509F308F808950995099509C1
:10009000950995099509FF0813090C11231193116E
:1000A0009012AF12D512DD127C12302E310080205A
:1000B0004F4B81005320534352415443484544948D
:1000C000959697989B0103999C02039A022050529F
:1000D0004F54454354204F4E9D054944204D4953AC
:1000E0004D415443489E9FA0A1A253594E5441589C
:1000F00003A7BE0004464F554E44B2070450524574
:1001000053454E54B34F564552464C4F5720494ED7
:100110002007B40020544F4F204C41524745BC02A9
:1001200020002006BD000406BF0020455849535456
:1001300053C0002054595045204D49534D4154431C
:1001400048C14E4F20424C4F434BC2C3494C4C45D3
:1001500047414C20545241434B204F52205345437A
:10016000544F52C64E4F204348414E4E454CC74413
:10017000495203C80546554C4CC94E455432494571
:10018000432056CA4452495645040159FF80464906
:100190004C4581524541448257524954458320453C
:1001A00052524F5284204E4F5420854449534B2085
:1001B000864F50454E875245434F5244FF0022F927
:1001C000010C650011241FBECFE5D8E0DEBFCDBF16
:1001D00014BE0FB6F894A89581B5886181BD11BC95
:1001E0000FBE14BE0FB6F894A89581B5886181BD85
:1001F00011BC0FBE19BE10E0A0E6B0E0E6E3FFE2DE
:1002000002C005900D92A836B107D9F727E0A8E6FD
:10021000B0E001C01D92A03DB207E1F7CFD00C9431
:10022000F016EECE2A95F1F7089500000895F8949F
:10023000FC018C988B98829B8B9A849BFCCF22E349
:10024000F1DF000000B20294802D8072902D907436
:1002500096959695892B2DE1E5DF000000B202947A
:10026000902D9074892B902D9072990F990F892B56
:1002700027E1D8DF00C000B2902D9470990F892B30
:10028000902D9270892B2DE1CDDF00C000B2902D12
:100290009470892B902D92709695892B99272DE13A
:1002A000C1DF000030B32DE0BDDF8B9A2FEF822736
:1002B00030837894089533270694331F0694331FB0
:1002C000330F31BB0895F89454E1442309F058608A
:1002D0004F77662311F068E001C060E18B988C983D
:1002E000A4DF082E7FEF072680B38C718517E1F31A
:1002F0008470D9F022E196DFDEDF23E193DF00C0D6
:10030000DADF26E18FDF0000D6DF23E18BDF00C0DC
:10031000D2DF442351F428E185DF00C061BB85DFD3
:1003200080B382FF02C083FDFBCF8727847078945F
:1003300008958399FECF2FEF822720E021BB839B76
:10034000FECF73DF44E03327880F331F880F331F3E
:10035000330F25E467DF000031BB67DF4A9599F76B
:100360002FE360DF8B988C9A08958399FECF20E06D
:1003700021BBFC015FEF839BFECF57DF28E052DFFC
:10038000019044E005262CE14DDF00003327000CEE
:10039000331F000C331F330F2BE344DF000031BB4E
:1003A0002AE040DF4A9591F727E13CDF00C06A95DB
:1003B00039F72BE137DF8B988C9A089584B78068E2
:1003C00084BF84BFD69AD79ADE9ADF980ED024D203
:1003D000BCD7DE9880EB87BBF8940E944D0A0E9440
:1003E00074160E947B1645D2FECFECE2F4E084E462
:1003F000DF011D928A95E9F788E690E0918380837A
:1004000088E691E0928B818B88E692E093A382A3A9
:1004100087E994E094AB83AB8FE087ABA4E6B4E0CC
:100420008C918D6080618C9382E597E092AF81AF73
:100430000895FC01892BE1F084818F30C9F095810A
:1004400090FF16C09E7F958393FF05C0809127047F
:1004500080518093270480912704807F09F4DF98DE
:1004600080912704815080932704811101C0DE9878
:100470000895A0E0B0E0EFE3F2E00C945817D82F15
:100480000CE214E0E12CF12CC0E081E1D82EDE9CDE
:10049000F001DF9CF00D1124EF5CFB4F808180FFA9
:1004A00015C0DD2389F0D8011896ED91FC911997BC
:1004B000309751F0C11107C0C8010995C1E0811101
:1004C00003C0C0E001C0C1E0C801B3DFBFEFEB1A59
:1004D000FB0A0F5E1F4F83E0E816F104C1F68C2F74
:1004E000CDB7DEB7E7E00C947417ECE2F4E040E03F
:1004F00050E091E1949F9001959F300D1124D90116
:10050000AF5CBB4F6C9160FF07C06481681304C08F
:10051000C901845D9B4F08954F5F5F4F71964430D2
:10052000510541F780E090E0089580B38C739AE024
:100530009A95F1F700C020B3482F50E02C7330E0BB
:100540004217530791F7089580919304813039F44D
:1005500090B3892F847092FF0AC086E003C082990D
:1005600005C082E08093930481E0089580E00895BF
:100570000F931F93CF93DF93082FC62F809195047D
:1005800084FF09C040E0802F9EDE811102C080E020
:1005900071C0DADF3BC0D8DF811138C0C6DFD82F89
:1005A0008FEE90E00197F1F700C000008C98CCDF4F
:1005B00081112CC0BADF83FFFACFC1110DC0D3FD6A
:1005C0000BC08C9A8FEE90E00197F1F700C000000D
:1005D0000EC0ABDF83FD07C0B7DF8823D1F316C0A1
:1005E000A4DF83FFEECFB0DF8823D1F30FC0ACDFF1
:1005F00081110CC09ADF83FFFACFC0E0D0E010E099
:1006000094DF83FD05C087E0809393048FEF32C0B1
:10061000C8010C2E02C0959587950A94E2F780FFD9
:1006200002C08B9801C08B9A87E191E00197F1F7A6
:1006300000C000008C988091950480FF04C095EB69
:100640009A95F1F705C083E191E00197F1F700C0B9
:1006500000008C9A8B989AE19A95F1F700C0219648
:10066000C830D10569F670DF8111D0CF5EDF83FD20
:10067000FACF8DCFDF91CF911F910F9108950F93F6
:100680001F93CF93DF9360DF882319F08FEF9FEFE5
:1006900081C04BDF84FFF7CF8B98839BFECF12BEC8
:1006A00088B7816088BF50DF8111F0CFC8B7C170B3
:1006B0003CDF84FF03C0CC23B1F302C0CC2399F00C
:1006C0008B9A83E291E00197F1F700C000008B98CC
:1006D0003BDF8111DBCF29DF84FDFACF80919504C8
:1006E000826080939504C0E0D0E006E2809193049C
:1006F000813061F58091950483FF28C0D73031F5B2
:1007000002BF88B7816088BF9C2F9695392F3F71B3
:1007100080B32091950424FD16C008B600FE13C0D6
:10072000903688F42091920423130DC08B9AE3E550
:10073000F6E03197F1F700C000008B982091950406
:1007400020612093950484FFE3CF03C080B384FF2E
:10075000FDCF8C7383FD02C010E001C010E8F4DE11
:10076000811194CFE2DE84FDFACF8C2F8695C82FBD
:10077000C12BDF5FD83009F0B9CFFAE1FA95F1F774
:1007800000C08B9A87EC90E00197F1F700C0000061
:100790008C2F90E0DF91CF911F910F9108951F92C0
:1007A0000F920FB60F9211242F933F934F935F93A5
:1007B0006F937F938F939F93AF93BF93EF93FF9329
:1007C000829B8B9A80919604882399F0809168038C
:1007D000909169030196909369038093680380392F
:1007E000914039F48BB380588BBB109269031092FF
:1007F00068030E94C216FF91EF91BF91AF919F9144
:100800008F917F916F915F914F913F912F910F90B9
:100810000FBE0F901F90189511BA83EE82BB82E035
:1008200083BF8DE783BD14BC15BC85B5886085BDCD
:1008300085B5836085BD84B38F7584BB82B3806AC0
:1008400082BB8FE99FE00197F1F700C0000080B301
:100850008095881F8827881F815F859B02C090E054
:1008600001C092E0890F80939204A498AC9A89E425
:1008700016C3A2E0B0E0EFE3F4E00C9453177894D1
:10088000809195048F7E8E7F8093950410929304BF
:1008900000E010E086E0B82ECC24CA94DC2C8091D5
:1008A000930490E0FC0188309105E0F7E65DFF4F8E
:1008B0000C94471789B7806889BF8299FECF82E080
:1008C000F8C18C988B9A89B78F7789BF109294045E
:1008D00081E080939304809195048D7E8F7D809339
:1008E00095048CE982BF88B7816088BF849B0BC068
:1008F00008B600FC08C0829BF9CFB0929304F6CFF3
:100900008299B0929304849BFBCFC9CFF894B7DE51
:100910008C01789497FDC3CF8F33910531F480918A
:100920009404813009F067C008C08F35910541F407
:1009300080919404823009F05EC0109294045BC0F0
:100940008091920490E09C01205C3F4F201731077A
:1009500011F482E005C080968017910729F481E0A8
:100960008093940483E0A5C1C801807699278036DE
:100970009105B1F50136110559F480919404823046
:1009800039F48091950480628093950400E610E02C
:10099000802F8F70809391049801207F3327203E11
:1009A000310549F50F3E110539F481E062DD811111
:1009B0007FC180E074D2D6CF98DD7C01009791F2A0
:1009C000DC011896ED91FC911997309731F009955B
:1009D000882319F0C7012DDD6BC1C7012ADDC2CF05
:1009E00084E067C182990BC081E063C189B78F77CA
:1009F00089BF8C988B9885E05CC1829BFECFB092BA
:100A000093044DCF89B7806889BF80919404813069
:100A100009F083C0902EB02FBF70AB2E8B2F65DDF9
:100A20007C01009721F0FC01858183FD05C0892DA3
:100A3000807F803F09F03CC1F92DF07FFA838091DF
:100A4000950484FF1AC089B7806889BF87EC90E05D
:100A50000197F1F700C00000CE010196E8DB998113
:100A600092FF0BC0882E912C9295917080919504E5
:100A700090FB81F98093950404C0F89400DE4C014A
:100A8000789497FC0CCF9FE0A91619F0AA81A03F9B
:100A9000A1F4E091BC04E43640F481E08E0F809331
:100AA000BC04F0E0E354FB4F80828091950481FF09
:100AB000C6CF846080939504C2CFF701858181FD04
:100AC00014C0D70113968C911397ED91FC91119757
:100AD000E80FF11D808213968C91139712969C91CA
:100AE000981768F4F70182830AC00680F781E02D29
:100AF000309739F3C7010995882319F3D0CE8F5F5A
:100B0000D70113968C931397811199CF15968C91D9
:100B10001597826015968C9392CF823009F0C8C0E9
:100B20008B98E7ECF0E03197F1F700C000008C9A69
:100B300087E191E00197F1F700C00000902F9F70CE
:100B4000A92E892FD2DC7C01892B09F4B1C08091B8
:100B5000950483FF06C0AFE9B5E01197F1F700C037
:100B600000008091950485FF1FC0EEDC811197CEB7
:100B7000839BFBCF84E0F701838316C0981409F4AC
:100B800042C0F701838191E0980F93839281891786
:100B9000D8F0858184FD64C0D7011696ED91FC9153
:100BA0001797309709F061C0F701858182FF80C0F7
:100BB0008091950485FF08C08B9A8C988BED90E00E
:100BC0000197F1F700C00000D70113969C9013978E
:100BD00012968C90129740919504892D90E02D915A
:100BE0003C9145FF2AC0981002C040E801C041E88E
:100BF000F901E80FF91F60E0808165DB882309F4C3
:100C0000BDCFA2DC4CCEF701858184FFBACF8FE83F
:100C100091E00197F1F700C000008C98AFE8B1E0D7
:100C20001197F1F700C000008C9AEFE8F1E03197DE
:100C3000F1F700C000008C98A4CFF901E80FF91F6C
:100C4000981007C0D70115964C9144FF02C061E08F
:100C500001C060E080818CDC882309F492CF1FCE34
:100C6000FFE0AF1609F498CF23C0C7010995882388
:100C700009F49ACF1DC089B7806889BF8C988B987A
:100C80008091950482FF11C0809191048F3011F4FE
:100C9000ABD104C0D0926100C09260001092BC043D
:100CA000809195048B7F8093950410929304F7CDE7
:100CB00087E080939304F3CD0F931F93CF93DF933B
:100CC000DC0180E050E040585F4F21E0280FFB013D
:100CD000E80FF11DE4918E2F90E08417950721F025
:100CE000822FEF3F91F702C0EF3F29F4CD0101962B
:100CF0002FE32C931FC0FB01E20FF11DE491E7FFEE
:100D000002C02F5FF8CF8B01CD01D1E0D20FF801E7
:100D1000E20FF11DC491C03228F44C2F6DE871E050
:100D2000CBDF05C0C7FD03C0FC01C08301962D2F9A
:100D3000C7FFEBCFDF91CF911F910F910895FC0179
:100D4000862F643638F064E60E942717805D808322
:100D5000892F31966AE00E942717805D8083905D1D
:100D60009183CF0102960895A0E0B0E0EAEBF6E0AF
:100D70000C9456177A01C62FD0E000E010E087E906
:100D800094E06E0121E0C21AD1082EE2B22E0C17B7
:100D90001D0769F0F70161917F01D1DF0C151D0579
:100DA0001CF4FC01B08201960F5F1F4FF0CFCDB74E
:100DB000DEB7E9E00C9472170F931F93CF93DF9384
:100DC000C82F062FD42F8093BB04E7E9F4E0F093FB
:100DD0006004E0935F04109261041092620484E264
:100DE000DF011D928A95E9F76C2FCF01A8DFFC0186
:100DF0008CE28083C330B9F48AE4818380919504C6
:100E0000DF01139683FF02C08BE201C08DE2828373
:100E10008AE38C9383E411968C93119761B7CD018B
:100E200002968DDF14C04C2F6EEA70E0CF01019660
:100E300043DFC93461F4282FDC01CD01EA2FE21B26
:100E4000F0E0E655FF4FE491ED93E111F6CF1CE29F
:100E5000FC011083602F019672DFDC011C936D2F63
:100E600001966DDF2DE0FC012083C43130F0C934E0
:100E700021F021E02093960409C01092960420915D
:100E80002704207F11F0DF9A01C0DF988759944032
:100E900080936104DF91CF911F910F91089540E0FD
:100EA00060E08ACF80E0FBDF80E00895A0E0B0E062
:100EB000ECE5F7E00C9457177C01EB018A016AE33B
:100EC00070E00E941C17892B09F468C09701790112
:100ED0002F5F3F4FD7018C9180538A30C0F320E0C1
:100EE000FE016FE2253009F46FC0223039F128F499
:100EF000222341F0213099F0F5CF233039F124300D
:100F0000C9F1F0CFC7010196D7012C912F3209F416
:100F100042C02A3311F022E03FC0108231C0D70115
:100F20004D919F012F5F3F4F4A3321F41082CD0135
:100F3000F90127C0CD014083F9012BC0C7010196FB
:100F4000DC0111972C912A33D1F71BC0D7013D91B9
:100F50003F3249F0AF014F5F5F4F3A3339F41082AF
:100F6000CD01FA010EC0CD0124E016C0CD013083C1
:100F7000FA0112C0E70189918A3329F41082CE0167
:100F8000319625E009C06083CE01D7012C912183E1
:100F9000329623E001C021E07C01A4CFEC16FD06CF
:100FA00081F4F70101900020E9F76701BFEFCB1A48
:100FB000DB0AAF014E195F09B701C6010E94041791
:100FC0007601FE01319618820115110519F0D8013C
:100FD000ED93FC93D7018D9181938111FCCFCDB717
:100FE000DEB7E8E00C947317CF92DF92FF920F9375
:100FF0001F93CF93DF9300D000D000D0CDB7DEB7E2
:1010000080E04DDF9091BC04943661F480E20FC023
:10101000E92FF0E0E354FB4FDF0111978C918D3005
:1010200041F491509111F4CF1092BC048FE137DF5D
:101030007EC19093BC0410821182E091BE04809125
:10104000BD04E43409F04CC0182F8D3431F08235E2
:1010500021F1833409F069C10AC06AE370E08DEBC5
:1010600094E00E941C17892B11F482E2E0CFAE01BC
:101070004F5F5F4F6DEB74E08FEB94E017DF809173
:10108000BD04882351F0E981FA8131978FE2808392
:101090008DEB94E09A8389830CC010E0E12FF0E09F
:1010A000E354FB4F8081882321F08F32F1F21F5FE0
:1010B000F5CF1F3FD1F262E0E62FF0E0E354FB4FA3
:1010C0002081822F90E0C0970A9710F46F5FF4CFD1
:1010D0002A3359F66F3F09F42AC140E081E023C169
:1010E000893479F038F4823409F421C1853409F463
:1010F000AFC01BC1853509F46AC0883509F015C138
:10110000FAC0E03509F013C16DE270E08DEB94E0B8
:101110000E941C17009709F489CFDC0111968C916D
:10112000843309F083CF6DE370E08DEB94E00E948F
:101130001C170097A9F4EDEBF4E001900020E9F70B
:101140003197ED5BF440359748F4AE014F5F5F4F48
:1011500064E070E084E090E007DEE9C08FEB94E0AB
:10116000FC013196AE014F5F5F4F20E0808181111D
:1011700004C0222309F4DBC0E8CF263031F3DF01BD
:101180008191882311F38032D1F38D31C1F38D7FAA
:101190008C32A9F32F5FBD016F5F7F4F8C9180323E
:1011A00011F4DB01F8CF30E0FD018081119690E071
:1011B000C0978A30910538F4F82FEAE03E9FF00D91
:1011C00011243F2FF1CFDA013D93AD01CFCF8E2F08
:1011D00090E0FC01F097EB31F10508F0A6C0EE5C61
:1011E000FF4F0C9447178DE28093BD0482E504C045
:1011F0008DE28093BD0487E58093BE0498C0809102
:10120000BF048B3231F08D3241F081118EC089E400
:101210000ECF809195048E7F03C0809195048160EC
:101220008093950484C0F894E0E0F0E009957FC0D5
:101230008091BF048F718E3109F077C08091C00416
:101240009CEF980F9B3108F070C0809392046FC0A0
:10125000963008F46CC00091C0041091C104F09065
:10126000C204ED3231F48091BF04873521F082351C
:1012700011F08EE114DE812F90E0982F8827800FE7
:10128000911D8130F2E09F0708F0C0CE9C012F0D28
:10129000311D2130324008F0B9CE2091BF042735EE
:1012A00099F423ECC22E24E0D22E8C011E5FFF2085
:1012B00009F43DC0D6016D916D01C8010E948C17E3
:1012C000FA940F5F1F4FF3CFB4E2BF1508F49ECE20
:1012D0008C011E5F87E9C82E84E0D82EFA94FFEFB8
:1012E000FF1629F1C8010E948417F60181936F014E
:1012F0000F5F1F4FF3CFEA3451F018F4E334B9F025
:101300000EC0E335A1F0E73551F46BD008C08091F1
:10131000BF048B3221F08D3211F08EE1C0DD40E050
:101320006091920483E048DD02C08EE180CE269673
:101330000FB6F894DEBF0FBECDBFDF91CF911F91E6
:101340000F91FF90DF90CF9008951F93CF93DF937D
:1013500010E0C2E0D0E0CE010E948417180F219661
:10136000C630D105C1F781E090E00E9484171813C0
:1013700034C082E090E00E94841781BF83E090E057
:101380000E9484179091950480FB93F990939504A3
:1013900085E090E00E94841790E020B3022E000CBC
:1013A000330B209530952227330F221F3327215FDF
:1013B0003F4F859B03C040E050E002C042E050E058
:1013C000240F351F8217930731F484E090E00E94C8
:1013D0008417809392041FBA1EBADF91CF911F9198
:1013E00008951F93CF93DF9361B782E090E00E944E
:1013F0008C176091950463FB662760F983E090E0A9
:101400000E948C176091920484E090E00E948C17F7
:1014100060B36095661F6627661F615F859B02C08B
:1014200080E001C082E0680F85E090E00E948C17A8
:1014300010E0C2E0D0E0CE010E948417180F219680
:10144000C630D105C1F7612F81E090E00E948C1772
:101450008FEF9FEF9FBB8EBBDF91CF911F910895C0
:1014600073D326D00E9478161AD10C9430148EB5FE
:101470008A7F8EBD8EB582608EBD8FB583608FBD35
:101480008EB588618EBD1DBC1CBC8FE39CE99BBDE5
:101490008ABD89B7846089BF0895C49A80E58DB9F3
:1014A00081E08EB908958FB9779BFECF8FB10895F3
:1014B00046E050E06DEB71E08BE295E00E94F216A1
:1014C000E3EDF5E080EC98EA9183808320E03BE552
:1014D00033832283EFECF5E02FEF3FEF318320835E
:1014E0002FEF30E033832283EBECF5E091838083B0
:1014F00080E092E0938382830895C4988AE3D3DFE7
:1015000080E0D1DFC49A0895CF93C82FC4988AE7AA
:10151000CADF8C2FC8DFC49ACF910895C4988FEF8B
:10152000C2DF8FE39FE10197F1F700C00000C49A8A
:101530000895CF93C82F40EA63E08FE172D06C2FFB
:10154000637040E88FE16DD0C0936D03CF91089533
:10155000CF93DF93C82FD82FDF71DB3170F4807603
:1015600090E025E0959587952A95E1F720916D0308
:1015700030E08217930709F0DCDFC4988D2F93DFEA
:1015800080E091DFC7FF02C080E08DDFC49ADF9169
:10159000CF910895CF93DF93D62FC82FCF71CB3142
:1015A00070F4807690E025E0959587952A95E1F78F
:1015B00020916D0330E08217930709F0BADFC498D9
:1015C0008C2F806470DF8D2F6EDFC49ADF91CF91F6
:1015D0000895CF93C92F682F80E0DCDF6C2F81E066
:1015E000D9DFCF910895CF93C92F682F82E0D2DF42
:1015F0006C2F83E0CFDFCF910895CF93DF93D62F69
:10160000C72F682F84EDC6DF6D2F86EDC3DF6C2FEB
:1016100087EDC0DF8AEE9CDF80FDFCCFDF91CF91AC
:1016200008951F93CF93DF93D62F142FC82FCF7118
:10163000CB3170F4807690E025E0959587952A95DA
:10164000E1F720916D0330E08217930709F071DF15
:10165000C4988C2F812B27DF8D2F25DFC49ADF9133
:10166000CF911F910895CF93682F84ED93DF40E8C9
:1016700061E082EDD6DF8AEE6BDF80FDFCCF40EAD1
:1016800061E082EDCEDF88ED63DFC82F89ED60DF9A
:101690002C2F30E0A901582BCA01CF9108958FEF6C
:1016A00080936A033BDF60E088E074DF60E089E0FC
:1016B00071DF6FEF8AE06EDF6FE08BE06BDF60E081
:1016C00084E068DF60E185E065DF60E08CE062DF98
:1016D00060E08DE05FDF60E08EE05CDF60E08FE087
:1016E00059DF109228051092270540EA60E881EC46
:1016F00098DF40E86DE080EC94DF40E862E382EC44
:1017000090DF60E070E080E078DF80E0ACDF90FFA9
:1017100006C040E861E082EC84DF62E105C040EA97
:1017200061E082EC7EDF65E184EC34DF62E186EC2F
:1017300031DF6CE087EC2EDF68EF8AEC2BDF61E0B5
:101740008BEC28DF60912B0584EE24DF60912C0563
:1017500085EE20DF60912D0582EE1CDF60912E0565
:1017600083EE18DF60912F0580EE14DF6091300565
:1017700081EE10DF63E888E30DDF62E17CE084E165
:101780003CDF6BED8BE106DF62E170E082E135DF8B
:1017900040E864E08FE145DF40E860E88EE141DF4A
:1017A00010926A03089580916A03811115C082EC3A
:1017B000CFDE8273823331F080916C038F5F809330
:1017C0006C036DDF80ECC4DE8D3031F080916B03F3
:1017D0008F5F80936B0363CF0895A4E0B0E0E3EFE5
:1017E000FBE00C94591789E3B3DE882309F479C030
:1017F0008091270590912805ECDE7FDE182F7DDE95
:10180000212F30E0382B309328052093270575DEF3
:10181000898373DE8A8371DE8B836FDE8C8389819B
:101820009A818C01045011091A8309834297873EDB
:10183000914028F487EDE82E85E0F82E02C02FDFD6
:1018400050C0C701875D95408017910728F455DE89
:10185000F70181937F01F5CF10932A0500932905A5
:101860008091E3059091E4059827892798278115B1
:10187000F8E09F0761F086309840B1F40E948B1425
:101880008091290590912A05892B71F00CC00E9446
:10189000611481E06FD18091290590912A05892BEF
:1018A00019F00E945D1562D060912705709128059E
:1018B000CB0101978115904128F06FEF8CE06ADE33
:1018C0006FE009C061508CE065DE80912705909142
:1018D00028050197692F8DE05DDE40E860E48EE128
:1018E000A0DE2496E6E00C947517CF9389E330DEF2
:1018F000882309F439C08CE12BDEC82F40EA60E868
:101900008BE18FDEC4FF04C083E1ADDE81E1ABDE9D
:10191000C3FF08C040EA68E08CE183DE40EA6AE089
:101920008DE17FDE9FB7F8948091A205811105C0FB
:1019300088E08093A20580E001C081E09FBF811113
:1019400013C04BDF1092A205C0FF04C040EA61E063
:101950008CE167DEC1FF04C040EA62E08CE161DE39
:1019600040E860E88BE15DDECF910895CF93DF938F
:10197000C4E68FE1EDDD83FF03C0C150D0F702C0A4
:10198000CC2391F160E084E005DE60E185E002DED9
:101990006091290586E0FEDD8091290590912A0558
:1019A000905F692F87E0F6DD80E090E11CDE80E04B
:1019B000ABDDC7EDD5E02091290530912A05CE0198
:1019C000875D95408217930718F489919DDDF3CFC9
:1019D00040E860E88FE125DE40EA60E88FE121DE43
:1019E00040E868E08FE11DDEDF91CF910895FC01B2
:1019F0002381260F20937103A72FBB2792819A0F73
:101A000090937003318130936F03408140936E0354
:101A1000E92FF0E0EA17FB0748F481E0830F809399
:101A20006F03811103C04F5F40936E0330E077274F
:101A30002617370788F49F5F9093700391110CC0AD
:101A400080916F038F5F80936F03811105C0809138
:101A50006E038F5F80936E030895FB01415051091F
:101A6000460F571FE417F50778F4208130E0322F36
:101A700022276181260F311D820F931F8217930742
:101A800008F401963296EECFE417F50751F4208161
:101A900030E0322F2227820F931F8217930708F41A
:101AA0000196089544E150E065EE75E080E090E035
:101AB000D4DF009721F098278927982708958FEF82
:101AC0009FEF08952091400530914105BC01C90167
:101AD00008968DDFE0914005F0914105AEE6B3E058
:101AE0008C91808711968C911197818712968C9199
:101AF0001297828713968C9183870895CF93DF93F3
:101B0000C091E705D0E0DC2FCC272091E80530E03C
:101B100024513109C20FD31F48E050E061EF75E056
:101B20009E01280F311DC90198DFAE0169EF75E0F4
:101B300094DF009721F098278927982702C08FEF1C
:101B40009FEFDF91CF910895E3EAF5E011821082D3
:101B5000349685E0EB3CF807C9F710925D051092CA
:101B60007D0510929D0580E094E090933905809367
:101B7000380508950F931F93CF93DF932DE036E040
:101B800030933F0520933E0530933605209335056D
:101B9000C0914005D0914105833059F48B8D8F70F1
:101BA000833009F0ACC588899989892B09F0A7C5CC
:101BB00086C0823009F089C080913D058F5F809397
:101BC0003D05811113C080913C058F5F80933C05DA
:101BD00081110CC080913B058F5F80933B05811183
:101BE00005C080913A058F5F80933A0510922A05CF
:101BF000109229051092CE071092CD078B8D982F49
:101C00009D7F953041F48C8D8F5F8C8F883709F0E4
:101C100076C51B8E74C5882309F471C52889398956
:101C2000232B09F448C09C8D2FEF290F2C8F911185
:101C300066C59D8D983031F02FEF280F223068F463
:101C4000953059F41B8E80E880933705EE8DFF8D1B
:101C5000309709F4F8C30995F6C3953038F423E0BA
:101C6000092E01C0220F0A94EAF701C020E32C8F4D
:101C70009F5F9D8F8F708330A1F048F4813009F40D
:101C800018C2823009F03BC51092060615C2863094
:101C900009F47AC3883009F477C3843009F02FC57A
:101CA00073C384E080933705EE8DFF8D309709F480
:101CB000FCC30995FAC38F70833009F020C588E012
:101CC00080933705EE8DFF8DB2C38091E505853495
:101CD00009F015C50091E70510E0102F002780914D
:101CE000E805080F111D8091290590912A0580179C
:101CF000910708F404C510932A05009329058091E3
:101D0000EB058F7309F0FBC48091EC058111F7C4DA
:101D1000C091D305D091D4058091F5059091F60539
:101D20008C179D0759F42091F7053091F8058091A3
:101D3000D5059091D6052817390751F0209709F05D
:101D4000DEC48091D5059091D605892B09F0D7C4C2
:101D5000A9DE019609F0D3C48091EE058630B1F179
:101D6000813009F0CCC48091F905883009F0C7C4EE
:101D70001092F9058091FB059091FC05873F6FEF6C
:101D8000960710F0099601C008969093FC05809381
:101D9000FB058091F1059091F2059093F6058093F3
:101DA000F5058091F3059091F4059093F8058093E3
:101DB000F705D093F205C093F1058091D505909178
:101DC000D6059093F4058093F3059DC486E096DED6
:101DD000019609F094C44091FB055091FC05809157
:101DE000F9059091FA056091F1057091F205E09185
:101DF000F305F091F405C2E4D5E02B8D2223A9F080
:101E0000AC81BD814A175B0781F4AE81BF818A171F
:101E10009B0759F4A881B9816A177B0731F4AA811D
:101E2000BB81EA17FB0709F460C1A09625E0C23A1E
:101E3000D20719F7809106068F73823079F4A3EAEE
:101E4000B5E08BEC95E0FD0120813181421753070D
:101E500009F475C034968E179F07B1F78091060676
:101E600082FD4DC484E18093060688E290E0909361
:101E70002A058093290580E58093050630910006A8
:101E800080910406809300069091FF0580910306DF
:101E90008093FF05909303068091FE052091020632
:101EA0002093FE05809302062091FD0540910106D6
:101EB0004093FD05209301063F5F309304063111E6
:101EC0000DC09F5F90930306911108C08F5F8093B0
:101ED0000206811103C02F5F209301068091F9054E
:101EE0009091FA052091FB053091FC053093FA059D
:101EF0002093F9059093FC058093FB058091F105F3
:101F00009091F2059093F6058093F5058091F30585
:101F10009091F4059093F8058093F7058091D3058F
:101F20009091D4059093F2058093F1058091D505A9
:101F30009091D6059093F4058093F305A3C3E2E452
:101F4000F5E080E090E0C0E0D0E0238D211109C0F1
:101F5000EC01E5E0CC0FDD1FEA95E1F7CE5BDA4F4F
:101F600011C0273039F4209721F0348D2C8D2317A0
:101F700008F4EF010196B0968330910531F7209770
:101F800009F4BDC3D0934105C093400580E090E0C3
:101F90002D913C9111974217530761F4880F991FB7
:101FA000880F991FFC01ED55FA4F828193819F8F15
:101FB0008E8F05C0019614968A30910549F783E00B
:101FC0008C8F8A8F188E84E0898F1D8E1B8A1A8AC7
:101FD0008091FB059091FC059D838C838091F90590
:101FE0009091FA059F838E838091F1059091F2057F
:101FF000998388838091F3059091F4059B838A836C
:1020000081E08B8F80913A058C8780913B058D878D
:1020100080913C058E8780913D058F8781E090E01F
:10202000998B888B809100068B878091FF058A872A
:102030008091FE0589878091FD05888781E090E089
:1020400041DD80910506982F907F913590F1829522
:102050008F7090E00597880F991F880F991F20E0D7
:10206000E22FF0E0E817F90724F5E952FA4F36A914
:102070003323F9F0313011F42F5FF2CF3230A1F475
:1020800037A9343089F480AD90E0982F882721ADAE
:10209000822B8F3B61E0960710F08EEB91E09D8BD9
:1020A0008C8B9F8B8E8B05C037A9332311F0230FA8
:1020B000D7CF80E1809306068091060682608093E8
:1020C000060682E080930D0684E080930E0681E090
:1020D00080930F068EEB809310068CE290E0909335
:1020E0002A058093290580E672C2D0934105C093EA
:1020F0004005109237059091060692FF07C01B8E8F
:1021000080E280933705EE8DFF8D05C28091050634
:1021100082958F70880F880F081B110904511109CF
:1021200010932A05009329052F70223021F4892F5E
:102130008F738231C9F0012B19F4892F8370A1F0BC
:102140002091FD058885281338C22091FE058985D8
:10215000281333C22091FF058A8528132EC22091AF
:1021600000068B85281329C294FF48C068897989A5
:102170006115710509F442C0CE010C9638DC30912E
:10218000010680916E03381339C0209102068091B8
:102190006F03281333C09091030680917003981346
:1021A0002DC08091040640917103841327C03C87A1
:1021B0002D879E878F878D8D811119C0988D8A8D6F
:1021C0002C8D821B292F269526952695821B980FEC
:1021D000988F87FD8195298D322F36953695231B53
:1021E000820F898F969596959695890F8A8F81E0B3
:1021F000809337058A8D8C8F198A188A2B8DE22F50
:10220000EF708E2F90E0FC013197E830F10508F077
:1022100076C2E35BFF4F3BC68091370580FF6FC2FC
:1022200083E08B8F80E480933705198A188A809128
:10223000290590912A05009709F4EEC022E4209325
:10224000370540DCE9C08091370580FF59C0809197
:1022500006068F73823109F053C080910506982FCE
:10226000907F913590F182958F7090E00597880F5F
:10227000991F880F991F20E0E22FF0E0E817F90777
:1022800024F5E952FA4F36A93323F9F0313011F42D
:102290002F5FF2CF3230A1F437A9343089F480AD0A
:1022A00090E0982F882721AD822B8F3B71E0970714
:1022B00010F08EEB91E09D8B8C8B9F8B8E8B05C0ED
:1022C00037A9332311F0230FD7CF83E08B8F809171
:1022D000FD0588878091FE0589878091FF058A87A3
:1022E000809100068B8781E090E0ECDB82E48093B4
:1022F0003705198A188A10922A05109229058CC070
:1023000080E280933705E0914005F0914105068C0D
:10231000F78DE02D309709F00995E0914005F09197
:102320004105138E9BCD8091060680FF2FC024FDB2
:102330002DC088899989892B09F0E1C180912905EF
:1023400090912A050196BEDB80913705982F906108
:10235000909337052091290530912A05232B19F0F8
:10236000826180933705E0914005F0914105068C2C
:10237000F78DE02D309709F0099581E090E0998B79
:10238000888B88E08B8F1D8E81E118C185FF1CC072
:1023900080910B0690910C069827892798274091E9
:1023A0003E0550913F05480F591F50933F054093FC
:1023B0003E054091290550912A05BA01681B790B09
:1023C00070932A05609329054091290550912A05AB
:1023D0004115510549F024FD07C0909137059260E1
:1023E00090933705CA016EDB8091070690E0982F25
:1023F000882720910806820F911D2E893F89281772
:10240000390718F0009709F09C013D8B2C8B8091C7
:102410003705837009F473C11092CE071092CD076F
:10242000E0914005F0914105068CF78DE02D309745
:1024300009F009958091370585FF07C01092CE07F6
:102440001092CD071B8E84E1B9C084FF0AC01092A0
:10245000CE071092CD0781E090E0998B888B84E0C5
:1024600091CF2091CD073091CE0721153105E1F0B4
:1024700080FF02C0198A188A88899989009781F497
:102480008C899D898217930720F49093CE078093BF
:10249000CD078091CD079091CE07998B888B04C092
:1024A0009093CE078093CD071D8E80913505909136
:1024B000360590933F0580933E058091CD0790911E
:1024C000CE07892B59F088899989009739F0889629
:1024D00090932A058093290588E10BC080913705E8
:1024E00081FF0DC188E290E090932A058093290531
:1024F00080E1809306066AC08091370580FFFFC0A7
:102500001B8E80E180933705E0914005F0914105F5
:10251000068CF78DE02D309709F4F1C00995EFC0D6
:102520008091290590912A05009709F0CBDA9091C6
:1025300006068091370590FF0BC080FF06C087E03C
:102540008B8F1C8E198A188A18C086E08B8F15C055
:1025500080FF24C085E08B8F198A188AD0C08091B3
:10256000290590912A05009709F0ACDA80910606BA
:1025700080FF14C087E08B8F1C8E81E090E0A2DA90
:1025800080E180933705E0914005F0914105068C8C
:10259000F78DE02D309789F009950FC080912905BE
:1025A00090912A05892B49F4AAC08091370580FFB4
:1025B000A6C087E08B8F1C8EA2C080E180930606A8
:1025C00088E290E090932A058093290580E5809326
:1025D00005068885809301068985809302068A8591
:1025E000809303068B85809304068C858093FD057C
:1025F0008D858093FE058E858093FF058F85809362
:10260000000686E08093EE058C819D819093FA050B
:102610008093F9058E819F819093FC058093FB0543
:102620008091D3059091D4059093F2058093F105A4
:102630008091D5059091D6059093F4058093F3058C
:10264000888199819093F6058093F5058A819B8115
:102650009093F8058093F7058B8D84FF05C0109249
:102660000806109207060EC08A899B89009721F000
:10267000909307068A8904C081E0809307068EEB59
:102680008093080680E48093ED0580912905909160
:102690002A059093E7058093E80510920C061092A6
:1026A0000B0610920A061092090686E027DA80953A
:1026B000909590930A068093090685E48093E5053A
:1026C0001092E6051092EC051092EB0580917203D2
:1026D0009091730301969093730380937203909388
:1026E000E9058093EA051092F0051092EF05DAD91A
:1026F000809590959093F0058093EF0504C010921B
:102700002A051092290510923705DF91CF911F916C
:102710000F910895CF93DF93C2E4D5E0D0934105A4
:10272000C093400582E026DA8091290590912A0520
:10273000892B11F0C2D11AD9A09685E0C23AD807E8
:1027400069F7DF91CF910895A0E0B0E0E9EAF3E105
:10275000AFC3FC0145E753E0DA0120E030E0CD9162
:10276000DC911197209731F112968D919C911397DE
:10277000009701F100811181C017D107D9F4C281FE
:10278000D3818C179D07B1F44BE0429FC001439F5A
:10279000900D1124DC01A758BC4F26E0FB010190ED
:1027A0000D922A95E1F7FC01EB58FC4F2091740340
:1027B000228752C02F5F3F4F1B962830310579F694
:1027C000A5E7B3E020E030E08D919C911197892B33
:1027D00069F412968D919C911397892B39F48BE0B3
:1027E000829FE001839FD00D112423C02F5F3F4FB4
:1027F0001B962830310541F720917403A22FB0E0D9
:10280000D12C80E090E0EA013A857D01E31AF108DD
:10281000082F10E00E151F051CF4822F831BD92EE4
:102820009F5F455F5F4F983071F78BE0D89EE00166
:102830001124CB58DC4F84E0DE0101900D928A9583
:10284000E1F7DE01149686E0FB0101900D928A9576
:10285000E1F7809174038A87CDB7DEB7E7E044C320
:10286000E5E7F3E084E0DF01982F1D929A95E9F700
:102870003B96A3E0ED3CFA07B1F70895809174030D
:102880008F5F80937403E5E7F3E090E044E06081BC
:10289000718122813381262B372B232B61F02285F6
:1028A000BC01621B7109683771052CF0DF01242F10
:1028B0001D922A95E9F73B9663E0ED3CF60739F760
:1028C00008952091F1053091F2058091D305909102
:1028D000D405822793272091CF053091D0058223FC
:1028E0009323892BB9F42091F3053091F40580915D
:1028F000D5059091D605822793272091D105309157
:10290000D20582239323892B29F46DED75E081EFA5
:1029100095E01ACF08958091290590912A0510928B
:102920002A05109229058A9708F408958091EB05ED
:102930009091EC05811521E0920729F081159240D4
:1029400009F475C008952091FD053091FE05809130
:10295000D3059091D4052817390709F083C0209139
:10296000FF05309100068091D5059091D605281776
:10297000390709F077C06DEE75E083EF95E0E4DE8E
:1029800080E092E09093EC058093EB0586E0EDEE1D
:10299000F5E0A7EFB5E001900D928A95E1F786E0AA
:1029A000EBE2F5E0ADEEB5E001900D928A95E1F72E
:1029B00086E0EBE2F5E0ADEDB5E001900D928A9591
:1029C000E1F786E0E7EFF5E0A7EDB5E001900D92C5
:1029D0008A95E1F78091FD059091F3059093FD05AF
:1029E0008093F3058091FE059091F4059093FE0588
:1029F0008093F4058091FF059091F5059093FF0574
:102A00008093F505809100069091F605909300065D
:102A10008093F60588E096E09093E4058093E305C3
:102A20008AE290E090932A058093290508952091E9
:102A3000FD053091FE058091D3059091D4052817AE
:102A4000390781F42091FF05309100068091D5056A
:102A50009091D6052817390729F46DEE75E083EFBC
:102A600095E072CE0895CF93DF93EC0148815981B0
:102A7000E5E7F3E020E030E0608171814617570719
:102A800089F4EC01AA81BB8162817381A617B70723
:102A900049F44BE0429FC001439F900D11248B5895
:102AA0009C4F08C02F5F3F4F3B962830310521F7E0
:102AB00080E090E0DF91CF910895A4E0B0E0E2E6FD
:102AC000F5E1FBC18091F505805E8031B0F481E0D5
:102AD0008093D7051092D8058EE58093D905809113
:102AE000F6058F778093DA058091F7058093DB05F3
:102AF0008091F8058093DC05CEC08091F50590911A
:102B0000F6054091D3055091D4052091CF05309121
:102B1000D005B90160957095642B752B86179707C2
:102B200099F46091D1057091D20560957095E0910E
:102B3000D505F091D6056E2B7F2BE091F705F0912E
:102B4000F805E617F70759F08F3F6FEF960759F42E
:102B50006091F7057091F8056F3F7F4F21F486E093
:102B6000E2E6F0E092C04827592724233523232B9F
:102B700091F46091F7057091F8052091D505309199
:102B8000D605262737274091D1055091D205242319
:102B90003523232B69F08091CB059091CC059A8346
:102BA00089838091CD059091CE059C838B8304C051
:102BB0009A8389837C836B83CE01019654DF0097CF
:102BC00009F060C046E050E06FEF70E087ED95E0FF
:102BD0002CD186E0E7EFF5E0DF01682F1D926A95C2
:102BE000E9F7EBE2F5E0ADEDB5E0982F01900D923D
:102BF0009A95E1F7EBE2F5E0ADEEB5E0982F0190A4
:102C00000D929A95E1F729813A813093FE05209340
:102C1000FD052B813C81309300062093FF05209118
:102C2000D3053091D4053093F4052093F30520911A
:102C3000D5053091D6053093F6052093F50520E0B3
:102C400031E03093EC052093EB053093E6052093BB
:102C5000E50528E030E03093E8052093E705809310
:102C6000E90584E08093EA0588E096E09093E40526
:102C70008093E3058AE290E090932A0580932905EA
:102C800081E022C0FC01349686E0A7EDB5E001901A
:102C90000D928A95E1F786E0EBE2F5E0ADEDB5E067
:102CA00001900D928A95E1F788E090E09093E40519
:102CB0008093E3058091290590912A050E969093C3
:102CC0002A058093290580E02496E2E012C1EDEC0C
:102CD000F3E0828587FD02C08F5F82873B9684E0A8
:102CE000E532F807B1F708950E94300A0C94370ACC
:102CF0000C944F0B089508958091CF07882309F411
:102D000040C01092CF07809125049091260401962F
:102D100090932604809325049FB7F8948091A20590
:102D2000811105C088E08093A20580E001C081E0A8
:102D30009FBF811126C080912504909126046AE0EE
:102D400070E091D0892B09F4E5DC80912504909105
:102D5000260462E370E087D0892B11F40E94D30B24
:102D6000809125049091260464EF71E07CD0892B3A
:102D700031F4109226041092250480DDA8DF109211
:102D8000A20508950E94750CA895B6DFA895089530
:102D90001F920F920FB60F9211248F939F93AF93B0
:102DA000BF938091230590912405A0912505B091B2
:102DB00026050196A11DB11D80932305909324053E
:102DC000A0932505B093260581E08093CF07BF919E
:102DD000AF919F918F910F900FBE0F901F901895FC
:102DE000F894A7C0FB01DC0102C005900D92415090
:102DF0005040D8F70895FB01DC0102C001900D920C
:102E000041505040D8F708956817790768F4FB01DE
:102E1000DC01E40FF51FA40FB51F02C002900E9253
:102E200041505040D8F70895E6CFDC0101C06D93C2
:102E300041505040E0F70895FC018191861721F040
:102E40008823D9F7992708953197CF010895991BC1
:102E500079E004C0991F961708F0961B881F7A9591
:102E6000C9F780950895AA1BBB1B51E107C0AA1F93
:102E7000BB1FA617B70710F0A61BB70B881F991F1B
:102E80005A95A9F780959095BC01CD010895EE0F54
:102E9000FF1F0590F491E02D09942F923F924F92DD
:102EA0005F926F927F928F929F92AF92BF92CF92DA
:102EB000DF92EF92FF920F931F93CF93DF93CDB7E3
:102EC000DEB7CA1BDB0B0FB6F894DEBF0FBECDBF5B
:102ED00009942A88398848885F846E847D848C842C
:102EE0009B84AA84B984C884DF80EE80FD800C8135
:102EF0001B81AA81B981CE0FD11D0FB6F894DEBF18
:102F00000FBECDBFED010895E199FECF9FBB8EBBF3
:102F1000E09A99278DB30895262FE199FECF9FBBA4
:102F20008EBB2DBB0FB6F894E29AE19A0FBE0196C4
:062F30000895F894FFCFA4
:082F3600FFFFFFFFFFFFFFFF9B
:00000001FF
